{
  "_format": "hh-sol-artifact-1",
  "contractName": "NFTMarket",
  "sourceName": "contracts/NFTMarket.sol",
  "abi": [
    {
      "inputs": [],
      "stateMutability": "nonpayable",
      "type": "constructor"
    },
    {
      "anonymous": false,
      "inputs": [
        {
          "indexed": true,
          "internalType": "uint256",
          "name": "itemId",
          "type": "uint256"
        },
        {
          "indexed": true,
          "internalType": "address",
          "name": "nftAddress",
          "type": "address"
        },
        {
          "indexed": true,
          "internalType": "uint256",
          "name": "tokenId",
          "type": "uint256"
        },
        {
          "indexed": false,
          "internalType": "address",
          "name": "seller",
          "type": "address"
        },
        {
          "indexed": false,
          "internalType": "address",
          "name": "owner",
          "type": "address"
        },
        {
          "indexed": false,
          "internalType": "uint256",
          "name": "price",
          "type": "uint256"
        },
        {
          "indexed": false,
          "internalType": "bool",
          "name": "sold",
          "type": "bool"
        }
      ],
      "name": "MarketItemCreated",
      "type": "event"
    },
    {
      "inputs": [
        {
          "internalType": "address",
          "name": "nftAddress",
          "type": "address"
        },
        {
          "internalType": "uint256",
          "name": "tokenId",
          "type": "uint256"
        },
        {
          "internalType": "uint256",
          "name": "price",
          "type": "uint256"
        }
      ],
      "name": "createMarketItem",
      "outputs": [],
      "stateMutability": "payable",
      "type": "function"
    },
    {
      "inputs": [
        {
          "internalType": "address",
          "name": "nftAddress",
          "type": "address"
        },
        {
          "internalType": "uint256",
          "name": "itemId",
          "type": "uint256"
        }
      ],
      "name": "createSale",
      "outputs": [],
      "stateMutability": "payable",
      "type": "function"
    },
    {
      "inputs": [],
      "name": "getUnsoldItems",
      "outputs": [
        {
          "components": [
            {
              "internalType": "uint256",
              "name": "itemId",
              "type": "uint256"
            },
            {
              "internalType": "address",
              "name": "nftAddress",
              "type": "address"
            },
            {
              "internalType": "uint256",
              "name": "tokenId",
              "type": "uint256"
            },
            {
              "internalType": "address payable",
              "name": "seller",
              "type": "address"
            },
            {
              "internalType": "address payable",
              "name": "owner",
              "type": "address"
            },
            {
              "internalType": "uint256",
              "name": "price",
              "type": "uint256"
            },
            {
              "internalType": "bool",
              "name": "sold",
              "type": "bool"
            }
          ],
          "internalType": "struct NFTMarket.MarketItem[]",
          "name": "",
          "type": "tuple[]"
        }
      ],
      "stateMutability": "view",
      "type": "function"
    },
    {
      "inputs": [],
      "name": "getlistPrice",
      "outputs": [
        {
          "internalType": "uint256",
          "name": "",
          "type": "uint256"
        }
      ],
      "stateMutability": "view",
      "type": "function"
    },
    {
      "inputs": [],
      "name": "ownedNFTs",
      "outputs": [
        {
          "components": [
            {
              "internalType": "uint256",
              "name": "itemId",
              "type": "uint256"
            },
            {
              "internalType": "address",
              "name": "nftAddress",
              "type": "address"
            },
            {
              "internalType": "uint256",
              "name": "tokenId",
              "type": "uint256"
            },
            {
              "internalType": "address payable",
              "name": "seller",
              "type": "address"
            },
            {
              "internalType": "address payable",
              "name": "owner",
              "type": "address"
            },
            {
              "internalType": "uint256",
              "name": "price",
              "type": "uint256"
            },
            {
              "internalType": "bool",
              "name": "sold",
              "type": "bool"
            }
          ],
          "internalType": "struct NFTMarket.MarketItem[]",
          "name": "",
          "type": "tuple[]"
        }
      ],
      "stateMutability": "view",
      "type": "function"
    },
    {
      "inputs": [
        {
          "internalType": "uint256",
          "name": "_price",
          "type": "uint256"
        }
      ],
      "name": "setlistPrice",
      "outputs": [
        {
          "internalType": "uint256",
          "name": "",
          "type": "uint256"
        }
      ],
      "stateMutability": "nonpayable",
      "type": "function"
    }
  ],
  "bytecode": "0x608060405266470de4df82000060045534801561001b57600080fd5b50600160008190555033600360006101000a81548173ffffffffffffffffffffffffffffffffffffffff021916908373ffffffffffffffffffffffffffffffffffffffff1602179055506115fe806100746000396000f3fe6080604052600436106100555760003560e01c806337605f2a1461005a57806358eb2df5146100855780639b8bc127146100a1578063b3643e3a146100cc578063db5cab99146100e8578063e2a5134214610113575b600080fd5b34801561006657600080fd5b5061006f610150565b60405161007c9190611335565b60405180910390f35b61009f600480360381019061009a9190610fa6565b61015a565b005b3480156100ad57600080fd5b506100b66104be565b6040516100c39190611293565b60405180910390f35b6100e660048036038101906100e19190610f6a565b6107ea565b005b3480156100f457600080fd5b506100fd610aa3565b60405161010a9190611293565b60405180910390f35b34801561011f57600080fd5b5061013a60048036038101906101359190610ff5565b610e53565b6040516101479190611335565b60405180910390f35b6000600454905090565b600260005414156101a0576040517f08c379a000000000000000000000000000000000000000000000000000000000815260040161019790611315565b60405180910390fd5b6002600081905550600081116101eb576040517f08c379a00000000000000000000000000000000000000000000000000000000081526004016101e2906112f5565b60405180910390fd5b600454341461022f576040517f08c379a0000000000000000000000000000000000000000000000000000000008152600401610226906112b5565b60405180910390fd5b6102396001610e9b565b60006102456001610eb1565b90506040518060e001604052808281526020018573ffffffffffffffffffffffffffffffffffffffff1681526020018481526020013373ffffffffffffffffffffffffffffffffffffffff168152602001600073ffffffffffffffffffffffffffffffffffffffff16815260200183815260200160001515815250600560008381526020019081526020016000206000820151816000015560208201518160010160006101000a81548173ffffffffffffffffffffffffffffffffffffffff021916908373ffffffffffffffffffffffffffffffffffffffff1602179055506040820151816002015560608201518160030160006101000a81548173ffffffffffffffffffffffffffffffffffffffff021916908373ffffffffffffffffffffffffffffffffffffffff16021790555060808201518160040160006101000a81548173ffffffffffffffffffffffffffffffffffffffff021916908373ffffffffffffffffffffffffffffffffffffffff16021790555060a0820151816005015560c08201518160060160006101000a81548160ff0219169083151502179055509050508373ffffffffffffffffffffffffffffffffffffffff166323b872dd3330866040518463ffffffff1660e01b815260040161042693929190611217565b600060405180830381600087803b15801561044057600080fd5b505af1158015610454573d6000803e3d6000fd5b50505050828473ffffffffffffffffffffffffffffffffffffffff16827f045dfa01dcba2b36aba1d3dc4a874f4b0c5d2fbeb8d2c4b34a7d88c8d8f929d13360008760006040516104a8949392919061124e565b60405180910390a4506001600081905550505050565b606060006104cc6001610eb1565b905060006104da6002610eb1565b6104e46001610eb1565b6104ee91906113f0565b90506000808267ffffffffffffffff811115610533577f4e487b7100000000000000000000000000000000000000000000000000000000600052604160045260246000fd5b60405190808252806020026020018201604052801561056c57816020015b610559610ebf565b8152602001906001900390816105515790505b50905060005b848110156107df57600073ffffffffffffffffffffffffffffffffffffffff16600560006001846105a3919061139a565b815260200190815260200160002060040160009054906101000a900473ffffffffffffffffffffffffffffffffffffffff1673ffffffffffffffffffffffffffffffffffffffff1614156107cc57600060056000600184610604919061139a565b81526020019081526020016000206000015490506000600560008381526020019081526020016000209050806040518060e0016040529081600082015481526020016001820160009054906101000a900473ffffffffffffffffffffffffffffffffffffffff1673ffffffffffffffffffffffffffffffffffffffff1673ffffffffffffffffffffffffffffffffffffffff168152602001600282015481526020016003820160009054906101000a900473ffffffffffffffffffffffffffffffffffffffff1673ffffffffffffffffffffffffffffffffffffffff1673ffffffffffffffffffffffffffffffffffffffff1681526020016004820160009054906101000a900473ffffffffffffffffffffffffffffffffffffffff1673ffffffffffffffffffffffffffffffffffffffff1673ffffffffffffffffffffffffffffffffffffffff168152602001600582015481526020016006820160009054906101000a900460ff1615151515815250508486815181106107af577f4e487b7100000000000000000000000000000000000000000000000000000000600052603260045260246000fd5b60200260200101819052506001856107c7919061139a565b945050505b80806107d79061147e565b915050610572565b508094505050505090565b60026000541415610830576040517f08c379a000000000000000000000000000000000000000000000000000000000815260040161082790611315565b60405180910390fd5b60026000819055506000600560008381526020019081526020016000206005015490506000600560008481526020019081526020016000206002015490508134146108b0576040517f08c379a00000000000000000000000000000000000000000000000000000000081526004016108a7906112d5565b60405180910390fd5b6005600084815260200190815260200160002060030160009054906101000a900473ffffffffffffffffffffffffffffffffffffffff1673ffffffffffffffffffffffffffffffffffffffff166108fc349081150290604051600060405180830381858888f1935050505015801561092c573d6000803e3d6000fd5b508373ffffffffffffffffffffffffffffffffffffffff166323b872dd3033846040518463ffffffff1660e01b815260040161096a93929190611217565b600060405180830381600087803b15801561098457600080fd5b505af1158015610998573d6000803e3d6000fd5b50505050336005600085815260200190815260200160002060040160006101000a81548173ffffffffffffffffffffffffffffffffffffffff021916908373ffffffffffffffffffffffffffffffffffffffff16021790555060016005600085815260200190815260200160002060060160006101000a81548160ff021916908315150217905550610a2a6002610e9b565b600360009054906101000a900473ffffffffffffffffffffffffffffffffffffffff1673ffffffffffffffffffffffffffffffffffffffff166108fc6004549081150290604051600060405180830381858888f19350505050158015610a94573d6000803e3d6000fd5b50505060016000819055505050565b60606000610ab16001610eb1565b905060008060005b83811015610b5a573373ffffffffffffffffffffffffffffffffffffffff1660056000600184610ae9919061139a565b815260200190815260200160002060040160009054906101000a900473ffffffffffffffffffffffffffffffffffffffff1673ffffffffffffffffffffffffffffffffffffffff161415610b4757600183610b44919061139a565b92505b8080610b529061147e565b915050610ab9565b5060008267ffffffffffffffff811115610b9d577f4e487b7100000000000000000000000000000000000000000000000000000000600052604160045260246000fd5b604051908082528060200260200182016040528015610bd657816020015b610bc3610ebf565b815260200190600190039081610bbb5790505b50905060005b84811015610e48573373ffffffffffffffffffffffffffffffffffffffff1660056000600184610c0c919061139a565b815260200190815260200160002060040160009054906101000a900473ffffffffffffffffffffffffffffffffffffffff1673ffffffffffffffffffffffffffffffffffffffff161415610e3557600060056000600184610c6d919061139a565b81526020019081526020016000206000015490506000600560008381526020019081526020016000209050806040518060e0016040529081600082015481526020016001820160009054906101000a900473ffffffffffffffffffffffffffffffffffffffff1673ffffffffffffffffffffffffffffffffffffffff1673ffffffffffffffffffffffffffffffffffffffff168152602001600282015481526020016003820160009054906101000a900473ffffffffffffffffffffffffffffffffffffffff1673ffffffffffffffffffffffffffffffffffffffff1673ffffffffffffffffffffffffffffffffffffffff1681526020016004820160009054906101000a900473ffffffffffffffffffffffffffffffffffffffff1673ffffffffffffffffffffffffffffffffffffffff1673ffffffffffffffffffffffffffffffffffffffff168152602001600582015481526020016006820160009054906101000a900460ff161515151581525050848681518110610e18577f4e487b7100000000000000000000000000000000000000000000000000000000600052603260045260246000fd5b6020026020010181905250600185610e30919061139a565b945050505b8080610e409061147e565b915050610bdc565b508094505050505090565b60003073ffffffffffffffffffffffffffffffffffffffff163373ffffffffffffffffffffffffffffffffffffffff161415610e9157816004819055505b6004549050919050565b6001816000016000828254019250508190555050565b600081600001549050919050565b6040518060e0016040528060008152602001600073ffffffffffffffffffffffffffffffffffffffff16815260200160008152602001600073ffffffffffffffffffffffffffffffffffffffff168152602001600073ffffffffffffffffffffffffffffffffffffffff168152602001600081526020016000151581525090565b600081359050610f4f8161159a565b92915050565b600081359050610f64816115b1565b92915050565b60008060408385031215610f7d57600080fd5b6000610f8b85828601610f40565b9250506020610f9c85828601610f55565b9150509250929050565b600080600060608486031215610fbb57600080fd5b6000610fc986828701610f40565b9350506020610fda86828701610f55565b9250506040610feb86828701610f55565b9150509250925092565b60006020828403121561100757600080fd5b600061101584828501610f55565b91505092915050565b600061102a838361116b565b60e08301905092915050565b61103f81611436565b82525050565b61104e81611424565b82525050565b61105d81611424565b82525050565b600061106e82611360565b6110788185611378565b935061108383611350565b8060005b838110156110b457815161109b888261101e565b97506110a68361136b565b925050600181019050611087565b5085935050505092915050565b6110ca81611448565b82525050565b6110d981611448565b82525050565b60006110ec601383611389565b91506110f7826114f6565b602082019050919050565b600061110f601f83611389565b915061111a8261151f565b602082019050919050565b6000611132601183611389565b915061113d82611548565b602082019050919050565b6000611155601f83611389565b915061116082611571565b602082019050919050565b60e08201600082015161118160008501826111f9565b5060208201516111946020850182611045565b5060408201516111a760408501826111f9565b5060608201516111ba6060850182611036565b5060808201516111cd6080850182611036565b5060a08201516111e060a08501826111f9565b5060c08201516111f360c08501826110c1565b50505050565b61120281611474565b82525050565b61121181611474565b82525050565b600060608201905061122c6000830186611054565b6112396020830185611054565b6112466040830184611208565b949350505050565b60006080820190506112636000830187611054565b6112706020830186611054565b61127d6040830185611208565b61128a60608301846110d0565b95945050505050565b600060208201905081810360008301526112ad8184611063565b905092915050565b600060208201905081810360008301526112ce816110df565b9050919050565b600060208201905081810360008301526112ee81611102565b9050919050565b6000602082019050818103600083015261130e81611125565b9050919050565b6000602082019050818103600083015261132e81611148565b9050919050565b600060208201905061134a6000830184611208565b92915050565b6000819050602082019050919050565b600081519050919050565b6000602082019050919050565b600082825260208201905092915050565b600082825260208201905092915050565b60006113a582611474565b91506113b083611474565b9250827fffffffffffffffffffffffffffffffffffffffffffffffffffffffffffffffff038211156113e5576113e46114c7565b5b828201905092915050565b60006113fb82611474565b915061140683611474565b925082821015611419576114186114c7565b5b828203905092915050565b600061142f82611454565b9050919050565b600061144182611454565b9050919050565b60008115159050919050565b600073ffffffffffffffffffffffffffffffffffffffff82169050919050565b6000819050919050565b600061148982611474565b91507fffffffffffffffffffffffffffffffffffffffffffffffffffffffffffffffff8214156114bc576114bb6114c7565b5b600182019050919050565b7f4e487b7100000000000000000000000000000000000000000000000000000000600052601160045260246000fd5b7f707269636520213d206c69737420707269636500000000000000000000000000600082015250565b7f41736b696e67207072696365206d7573742062652066756c66696c6c65642e00600082015250565b7f7072696365206d757374206265203e2030000000000000000000000000000000600082015250565b7f5265656e7472616e637947756172643a207265656e7472616e742063616c6c00600082015250565b6115a381611424565b81146115ae57600080fd5b50565b6115ba81611474565b81146115c557600080fd5b5056fea2646970667358221220bd88a95c80fe03386ac7ce778ee148af7b211e7ef92aa505032c2bae01c9773464736f6c63430008040033",
  "linkReferences": {},
  "deployedLinkReferences": {}
}